:020000040800F2
:1000000000200020910B0008ED0B0008ED0B00080C
:1000100000000000000000000000000000000000E0
:10002000000000000000000000000000ED0B0008D0
:100030000000000000000000ED0B0008ED0B0008C0
:10004000ED0B0008ED0B0008ED0B0008ED0B0008B0
:10005000ED0B0008ED0B0008ED0B0008ED0B0008A0
:10006000ED0B0008ED0B0008ED0B0008ED0B000890
:10007000ED0B0008ED0B0008ED0B0008ED0B000880
:10008000ED0B0008ED0B0008ED0B0008ED0B000870
:10009000ED0B0008ED0B0008ED0B0008ED0B000860
:1000A000ED0B0008ED0B0008ED0B0008ED0B000850
:1000B000ED0B0008ED0B0008ED0B0008ED0B000840
:1000C00080B582B000AF00F069F800F069FC00F084
:1000D000B3FC1D4B1D4A1A601B4BE12252025A60B1
:1000E000194B03221A72184B08225A72164B00221F
:1000F0009A72154B0122DA72134B180000F063F963
:1001000000233B603900104B0422180000F060FA15
:100110003B68002B04D03A68C8239B009A4202D95E
:1001200000F05EFCFEE780239B057B603A687968FF
:10013000054B180000F04CFA00F07EFC80239B0574
:10014000180000F005F8FEE700000020003801402C
:1001500080B586B000AF78600E4B9A690D4B0121D7
:100160000A439A610C4B03221A607B681B687B610F
:100170007B6804331B683B6172B6C0467B69FB60D9
:10018000FB6883F30888C0463B699847C046BD4674
:1001900006B080BD001002400000014080B582B072
:1001A00000AF9023DB050121180000F09FFC3B000D
:1001B00009221A703B0002225A703B0003229A70F7
:1001C0003B000022DA703A009023DB051100180092
:1001D00000F022FB9023DB0501220921180000F02A
:1001E00097FB3B000A221A703B0002225A703B0028
:1001F00003229A703B000022DA703A009023DB055C
:100200001100180000F008FB9023DB0501220A21F1
:10021000180000F07DFBC046BD4602B080BDC04660
:1002200080B582B000AF0200FB1D1A70FB1D1B7869
:100230007F2B09D8FB1D1B781A001F231A40044B83
:10024000012191400A001A60C046BD4602B080BD3F
:1002500000E100E080B582B000AF0200FB1D1A7023
:10026000FB1D1B787F2B10D8FB1D1B781A001F234A
:100270001340084901229A40130080228B50BFF39B
:100280004F8FC046BFF36F8FC046C046BD4602B019
:1002900080BDC04600E100E090B583B000AF020031
:1002A0003960FB1D1A70FB1D1B787F2B28D82F4A45
:1002B000FB1D1B785BB29B08C0339B009B58FA1D4B
:1002C0001278110003220A40D200FF2191400A0057
:1002D000D2431A4011003B689B01FF221A40FB1DCC
:1002E0001B78180003230340DB009A401F48FB1DC6
:1002F0001B785BB29B080A43C0339B001A5031E065
:100300001B4AFB1D1B7819000F230B40083B9B0861
:1003100006339B00D31804331B68FA1D12781100B2
:1003200003220A40D200FF2191400A00D2431A4022
:1003300011003B689B01FF221A40FB1D1B7818002F
:1003400003230340DB009A400948FB1D1B781C0077
:100350000F232340083B9B080A4306339B00C31826
:1003600004331A60C046BD4603B090BD00E100E012
:1003700000ED00E080B582B000AF78600A00FB1CA1
:100380001A70FB1C1A787B681100180000F06CFBD7
:10039000C046BD4602B080BD80B582B000AF786077
:1003A00039603B68002B01D1002308E03B685A0804
:1003B0007B68D3183968180000F01CFC0300180093
:1003C000BD4602B080BD80B586B000AF78607B6866
:1003D0001B683B617B680433FB603B6901211800AB
:1003E000FFF7C8FF3B691B68012293431A003B6972
:1003F0001A60FB685B79092B07D13B691B68802277
:1004000052011A433B691A6005E03B691B68304A98
:100410001A403B691A60FB689B79002B06D13B6947
:100420001B682C4A1A403B691A6018E03B691B683C
:100430008022D2001A433B691A60FB689B79022B29
:1004400007D13B691B68802292001A433B691A60FE
:1004500005E03B691B68204A1A403B691A60FB684B
:10046000DB79022B07D13B695B68802292011A433A
:100470003B695A6005E03B695B68184A1A403B6972
:100480005A6000F075FB03007B613B69144A93429C
:1004900003D100F075FB03007B61FB681A687B6980
:1004A00011001800FFF778FF02003B69DA603B6932
:1004B0001B680C221A433B691A603B691B680122C6
:1004C0001A433B691A60C046BD4606B080BDC046AF
:1004D000FFEFFFFFFFFBFFFFFFFDFFFFFFCFFFFF72
:1004E0000038014080B582B000AF78607B68134A65
:1004F00093420DD1124BDA68114B8021C9010A4396
:10050000DA600F4BDA680E4B0E490A40DA6010E0F1
:100510007B680D4A93420CD1094B1A69084B802124
:1005200089020A431A61064B1A69054B07490A40BA
:100530001A61C046BD4602B080BDC04600380140C9
:1005400000100240FFBFFFFF00440040FFFFFDFF1F
:1005500080B582B000AF786039607B68DB693A684B
:10056000134001D0012300E000231800BD4602B073
:1005700080BD80B586B000AFF860B9607A60FB6876
:100580001B683B6100237B6111E0C0463B69802111
:100590001800FFF7DDFF031EF8D0BA687B69D31897
:1005A0001B789AB23B691A857B6901337B617A6952
:1005B0007B689A42E9D3C0463B6940211800FFF7A7
:1005C000C7FF031EF8D0C046C046BD4606B080BD7A
:1005D00080B586B000AFF860B9607A60FB681B68D0
:1005E0003B6100237B6112E0C0463B69202118007B
:1005F000FFF7AEFF031EF8D03B699B8C99B2BA6837
:100600007B69D318CAB21A707B6901337B617A693E
:100610007B689A42E8D3C046C046BD4606B080BD5E
:1006200080B584B000AFF860B9607A60FB682022C2
:100630009B5C012B11D0FB68BA681A61FB687A6871
:100640009A61FB68202201219954FB681B681A6893
:10065000FB681B6880210A431A60C046BD4604B08F
:1006600080BD80B584B000AFF860B9607A60FB6887
:1006700021229B5C022B11D0FB68BA685A61FB688F
:100680007A68DA61FB68212202219954FB681B68B1
:100690001A68FB681B6820210A431A60C046BD46E1
:1006A00004B080BD80B582B000AF0200FB1D1A709F
:1006B000BB1D0A1C1A70BB1D1B78012B06D1FB1D2C
:1006C0001B785BB21800FFF7ABFD05E0FB1D1B7844
:1006D0005BB21800FFF7BEFDC046BD4602B080BD4C
:1006E00080B582B000AF02003960FB1D1A70FB1D9F
:1006F0001B785BB23A6811001800FFF7CDFDC046C9
:10070000BD4602B080BD80B586B000AF78607B6822
:100710001B687B617B69DB69802213403B617B69DD
:100720001B6880221340FB603B69002B24D0FB68D0
:10073000002B21D07B689B69002B10D07B681B6944
:100740001B789AB27B691A857B681B695A1C7B6887
:100750001A617B689B695A1E7B689A610CE07B6911
:100760001B68802293431A007B691A607B691B68AF
:1007700040221A437B691A607B69DB69402213407F
:100780003B617B691B6840221340FB603B69002B87
:100790000DD0FB68002B0AD07B691B684022934375
:1007A0001A007B691A607B682022002199547B69BA
:1007B000DB69202213403B617B691B6820221340C8
:1007C000FB603B69002B22D0FB68002B1FD07B69AC
:1007D0009B8C9AB27B685B69D2B21A707B685B694A
:1007E0005A1C7B685A617B68DB695A1E7B68DA6138
:1007F0007B68DB69002B0AD17B691B68202293434D
:100800001A007B691A607B68212200219954C04636
:10081000BD4606B080BDC04680B584B000AF7860EC
:1008200039607A689023DB059A4205D19023DB0575
:100830000121180000F05AF93B681B785B00FB604F
:100840007B681B680321FA6891400A00D2431A4072
:100850007B681A607B681A683B685B781900032321
:100860001940FB6899400B001A437B681A607B684B
:100870009B680321FA6891400A00D2431A407B68C2
:100880009A607B689A683B689B781900032319403B
:10089000FB6899400B001A437B689A607B68DB68B1
:1008A0000321FA6891400A00D2431A407B68DA605B
:1008B0007B68DA683B68DB78190003231940FB6822
:1008C00099400B001A437B68DA60C046BD4604B00D
:1008D00080BD80B582B000AF78607A689023DB0578
:1008E0009A420CD1084B9A6A074B802189020A432D
:1008F0009A62054B9A6A044B04490A409A62C046C0
:10090000BD4602B080BDC04600100240FFFFFDFFA3
:1009100090B585B000AF786008001100FB1C021C88
:100920001A70BB1C0A1C1A700F203B18FA1C127894
:10093000D2081A70FB1C1B7807221340DAB20E246F
:100940003B1992001A703B181A787B6808329200A3
:10095000D3583A1912780F2191400A00D1433A181E
:10096000127819407B6808329200D1503B181A78EF
:100970007B6808329200D158BB1C1B780F221A40AA
:100980003B191B789A4013003A18127819437B6878
:1009900008329200D150C046BD4605B090BDC04659
:1009A00080B582B000AF0D4B0121180000F09EF819
:1009B0003B0008221A703B0001225A703B000322C0
:1009C0009A703B000022DA703B00044A19001000C4
:1009D000FFF722FFC046BD4602B080BD00080048B8
:1009E00080B500AF044B5A69034B802149000A438C
:1009F0005A61C046BD4680BD0008004880B500AFC2
:100A0000044B5A69034B04490A405A61C046BD462B
:100A100080BDC04600080048FFFEFFFF80B500AF64
:100A2000044B5A69034B802149004A405A61C04631
:100A3000BD4680BD0008004880B582B000AFFFF71A
:100A4000CFFF00237B6002E07B6801337B607B6823
:100A5000044A9342F8D9FFF7D1FFC046BD4602B021
:100A600080BDC046DF93040080B582B000AF7860DF
:100A70000A00FB1C1A707B68174A934212D1FB1CB8
:100A80001B78012B07D1154B9A69144B8021C901A2
:100A90000A439A611CE0114B9A69104B10490A40B5
:100AA0009A6115E07B680F4A934211D1FB1C1B78B9
:100AB000012B07D1094BDA69084B802189020A43CF
:100AC000DA6105E0054BDA69044B07490A40DA614F
:100AD000C046BD4602B080BD003801400010024053
:100AE000FFBFFFFF00440040FFFFFDFF80B582B065
:100AF00000AF78600A00FB1C1A707A689023DB054F
:100B00009A4212D1FB1C1B78012B07D1144B5A6956
:100B1000134B802189020A435A611CE0104B5A6929
:100B20000F4B10490A405A6115E07B680E4A934208
:100B300011D1FB1C1B78012B07D1094B5A69084BBB
:100B4000802109030A435A6105E0054B5A69044BA9
:100B500006490A405A61C046BD4602B080BDC04643
:100B600000100240FFFFFDFF00080048FFFFF7FFF5
:100B700080B500AF014B1800BD4680BD00127A0061
:100B800080B500AF014B1800BD4680BD00127A0051
:100B900080B582B000AF104B7B60104B3B6007E02C
:100BA0007A68131D7B603B68191D396012681A60F2
:100BB0003A680B4B9A42F3D30A4B3B6004E03B6824
:100BC0001A1D3A6000221A603A68074B9A42F6D31F
:100BD000FFF776FAFEE7C0460C0D00080000002083
:100BE00000000020000000202400002080B500AF9D
:100BF000FEE7C046002243088B4274D303098B42B0
:100C00005FD3030A8B4244D3030B8B4228D3030CDC
:100C10008B420DD3FF22090212BA030C8B4202D37E
:100C20001212090265D0030B8B4219D300E0090AA6
:100C3000C30B8B4201D3CB03C01A5241830B8B42AF
:100C400001D38B03C01A5241430B8B4201D34B0398
:100C5000C01A5241030B8B4201D30B03C01A5241FD
:100C6000C30A8B4201D3CB02C01A5241830A8B4282
:100C700001D38B02C01A5241430A8B4201D34B026B
:100C8000C01A5241030A8B4201D30B02C01A5241CF
:100C9000CDD2C3098B4201D3CB01C01A5241830983
:100CA0008B4201D38B01C01A524143098B4201D3BD
:100CB0004B01C01A524103098B4201D30B01C01AE8
:100CC0005241C3088B4201D3CB00C01A5241830862
:100CD0008B4201D38B00C01A524143088B4201D38F
:100CE0004B00C01A5241411A00D2014652411046EF
:100CF0007047FFE701B5002000F006F802BDC046CE
:0C0D00000029F7D076E770477047C04626
:0400000508000B9153
:00000001FF
