:020000042000DA
:1000000000200020ED00002019010020190100202F
:100010001901002019010020190100200000000032
:100020000000000000000000000000001901002096
:100030001901002000000000190100201901002012
:1000400080B582B000AF224B1A68214B8021090392
:100050000A431A601F4B1A681E4B802149020A434B
:100060001A601C4B1A681B4B1B490A401A60194B3B
:100070001A68184B8021C9020A431A60154B1A6886
:10008000144B16490A401A60154B1A68144B80210C
:1000900089004A401A6000237B6002E07B680133DC
:1000A0007B607B680F4A9342F8DD0D4B1A680C4B5E
:1000B000802149004A401A6000233B6002E03B680F
:1000C00001333B603B68084A9342F8DDDCE7C046F9
:1000D0001410024000080048FFFFFDFFFFFFF7FF7C
:1000E000140800489F8601003F0D030080B582B0D0
:1000F00000AF074B7B6004E07B681A1D7A6000222A
:100100001A607A68034B9A42F6D3FFF799FFFEE72D
:10011000200100202001002080B500AFFEE7C0468E
:04000005200000EDEA
:00000001FF
